{
  "contractName": "TodoList",
  "abi": [
    {
      "inputs": [],
      "stateMutability": "nonpayable",
      "type": "constructor"
    },
    {
      "anonymous": false,
      "inputs": [
        {
          "indexed": false,
          "internalType": "uint256",
          "name": "id",
          "type": "uint256"
        },
        {
          "indexed": false,
          "internalType": "bool",
          "name": "completed",
          "type": "bool"
        }
      ],
      "name": "TaskCompleted",
      "type": "event"
    },
    {
      "inputs": [],
      "name": "taskCount",
      "outputs": [
        {
          "internalType": "uint256",
          "name": "",
          "type": "uint256"
        }
      ],
      "stateMutability": "view",
      "type": "function",
      "constant": true
    },
    {
      "inputs": [
        {
          "internalType": "uint256",
          "name": "",
          "type": "uint256"
        }
      ],
      "name": "tasks",
      "outputs": [
        {
          "internalType": "uint256",
          "name": "id",
          "type": "uint256"
        },
        {
          "internalType": "string",
          "name": "content",
          "type": "string"
        },
        {
          "internalType": "bool",
          "name": "completed",
          "type": "bool"
        }
      ],
      "stateMutability": "view",
      "type": "function",
      "constant": true
    },
    {
      "inputs": [
        {
          "internalType": "string",
          "name": "_content",
          "type": "string"
        }
      ],
      "name": "createTask",
      "outputs": [],
      "stateMutability": "nonpayable",
      "type": "function"
    },
    {
      "inputs": [],
      "name": "clearTask",
      "outputs": [],
      "stateMutability": "nonpayable",
      "type": "function"
    },
    {
      "inputs": [
        {
          "internalType": "uint256",
          "name": "_id",
          "type": "uint256"
        }
      ],
      "name": "toggleCompleted",
      "outputs": [],
      "stateMutability": "nonpayable",
      "type": "function"
    }
  ],
  "bytecode": "0x608060405260006001553480156200001657600080fd5b50336000806101000a81548173ffffffffffffffffffffffffffffffffffffffff021916908373ffffffffffffffffffffffffffffffffffffffff1602179055506200009d6040518060400160405280600981526020017f546f646f20644170700000000000000000000000000000000000000000000000815250620000a360201b60201c565b620003a7565b6000815111620000ea576040517f08c379a0000000000000000000000000000000000000000000000000000000008152600401620000e1906200025f565b60405180910390fd5b60016000815480929190620000ff90620002d2565b919050555060405180606001604052806001548152602001828152602001600015158152506002600060015481526020019081526020016000206000820151816000015560208201518160010190805190602001906200016192919062000188565b5060408201518160020160006101000a81548160ff02191690831515021790555090505050565b82805462000196906200029c565b90600052602060002090601f016020900481019282620001ba576000855562000206565b82601f10620001d557805160ff191683800117855562000206565b8280016001018555821562000206579182015b8281111562000205578251825591602001919060010190620001e8565b5b50905062000215919062000219565b5090565b5b80821115620002345760008160009055506001016200021a565b5090565b60006200024760138362000281565b915062000254826200037e565b602082019050919050565b600060208201905081810360008301526200027a8162000238565b9050919050565b600082825260208201905092915050565b6000819050919050565b60006002820490506001821680620002b557607f821691505b60208210811415620002cc57620002cb6200034f565b5b50919050565b6000620002df8262000292565b91507fffffffffffffffffffffffffffffffffffffffffffffffffffffffffffffffff82141562000315576200031462000320565b5b600182019050919050565b7f4e487b7100000000000000000000000000000000000000000000000000000000600052601160045260246000fd5b7f4e487b7100000000000000000000000000000000000000000000000000000000600052602260045260246000fd5b7f7461736b206d757374206e6f7420656d70747900000000000000000000000000600082015250565b610ba880620003b76000396000f3fe608060405234801561001057600080fd5b50600436106100575760003560e01c8063111002aa1461005c578063455f5024146100785780634598028b146100945780638d9776721461009e578063b6cb58a5146100d0575b600080fd5b610076600480360381019061007191906106c0565b6100ee565b005b610092600480360381019061008d9190610701565b6101cc565b005b61009c6103a0565b005b6100b860048036038101906100b39190610701565b61049b565b6040516100c79392919061088e565b60405180910390f35b6100d861055a565b6040516100e5919061084a565b60405180910390f35b6000815111610132576040517f08c379a0000000000000000000000000000000000000000000000000000000008152600401610129906107ea565b60405180910390fd5b60016000815480929190610145906109f9565b919050555060405180606001604052806001548152602001828152602001600015158152506002600060015481526020019081526020016000206000820151816000015560208201518160010190805190602001906101a5929190610560565b5060408201518160020160006101000a81548160ff02191690831515021790555090505050565b6000600260008381526020019081526020016000206040518060600160405290816000820154815260200160018201805461020690610996565b80601f016020809104026020016040519081016040528092919081815260200182805461023290610996565b801561027f5780601f106102545761010080835404028352916020019161027f565b820191906000526020600020905b81548152906001019060200180831161026257829003601f168201915b505050505081526020016002820160009054906101000a900460ff16151515158152505090506000151581604001511515146102f0576040517f08c379a00000000000000000000000000000000000000000000000000000000081526004016102e79061080a565b60405180910390fd5b6001816040019015159081151581525050806002600084815260200190815260200160002060008201518160000155602082015181600101908051906020019061033b929190610560565b5060408201518160020160006101000a81548160ff0219169083151502179055509050507fe21fa966ca5cd02748c0752352d18c48165e61cb55b4c29cccf924b5a95fcff1828260400151604051610394929190610865565b60405180910390a15050565b60008054906101000a900473ffffffffffffffffffffffffffffffffffffffff1673ffffffffffffffffffffffffffffffffffffffff163373ffffffffffffffffffffffffffffffffffffffff161461042e576040517f08c379a00000000000000000000000000000000000000000000000000000000081526004016104259061082a565b60405180910390fd5b60005b600154811015610490576002600082815260200190815260200160002060008082016000905560018201600061046791906105e6565b6002820160006101000a81549060ff021916905550508080610488906109f9565b915050610431565b506000600181905550565b60026020528060005260406000206000915090508060000154908060010180546104c490610996565b80601f01602080910402602001604051908101604052809291908181526020018280546104f090610996565b801561053d5780601f106105125761010080835404028352916020019161053d565b820191906000526020600020905b81548152906001019060200180831161052057829003601f168201915b5050505050908060020160009054906101000a900460ff16905083565b60015481565b82805461056c90610996565b90600052602060002090601f01602090048101928261058e57600085556105d5565b82601f106105a757805160ff19168380011785556105d5565b828001600101855582156105d5579182015b828111156105d45782518255916020019190600101906105b9565b5b5090506105e29190610626565b5090565b5080546105f290610996565b6000825580601f106106045750610623565b601f0160209004906000526020600020908101906106229190610626565b5b50565b5b8082111561063f576000816000905550600101610627565b5090565b6000610656610651846108f1565b6108cc565b90508281526020810184848401111561066e57600080fd5b610679848285610954565b509392505050565b600082601f83011261069257600080fd5b81356106a2848260208601610643565b91505092915050565b6000813590506106ba81610b5b565b92915050565b6000602082840312156106d257600080fd5b600082013567ffffffffffffffff8111156106ec57600080fd5b6106f884828501610681565b91505092915050565b60006020828403121561071357600080fd5b6000610721848285016106ab565b91505092915050565b6107338161093e565b82525050565b600061074482610922565b61074e818561092d565b935061075e818560208601610963565b61076781610acf565b840191505092915050565b600061077f60138361092d565b915061078a82610ae0565b602082019050919050565b60006107a260098361092d565b91506107ad82610b09565b602082019050919050565b60006107c5600a8361092d565b91506107d082610b32565b602082019050919050565b6107e48161094a565b82525050565b6000602082019050818103600083015261080381610772565b9050919050565b6000602082019050818103600083015261082381610795565b9050919050565b60006020820190508181036000830152610843816107b8565b9050919050565b600060208201905061085f60008301846107db565b92915050565b600060408201905061087a60008301856107db565b610887602083018461072a565b9392505050565b60006060820190506108a360008301866107db565b81810360208301526108b58185610739565b90506108c4604083018461072a565b949350505050565b60006108d66108e7565b90506108e282826109c8565b919050565b6000604051905090565b600067ffffffffffffffff82111561090c5761090b610aa0565b5b61091582610acf565b9050602081019050919050565b600081519050919050565b600082825260208201905092915050565b60008115159050919050565b6000819050919050565b82818337600083830152505050565b60005b83811015610981578082015181840152602081019050610966565b83811115610990576000848401525b50505050565b600060028204905060018216806109ae57607f821691505b602082108114156109c2576109c1610a71565b5b50919050565b6109d182610acf565b810181811067ffffffffffffffff821117156109f0576109ef610aa0565b5b80604052505050565b6000610a048261094a565b91507fffffffffffffffffffffffffffffffffffffffffffffffffffffffffffffffff821415610a3757610a36610a42565b5b600182019050919050565b7f4e487b7100000000000000000000000000000000000000000000000000000000600052601160045260246000fd5b7f4e487b7100000000000000000000000000000000000000000000000000000000600052602260045260246000fd5b7f4e487b7100000000000000000000000000000000000000000000000000000000600052604160045260246000fd5b6000601f19601f8301169050919050565b7f7461736b206d757374206e6f7420656d70747900000000000000000000000000600082015250565b7f7461736b20646f6e650000000000000000000000000000000000000000000000600082015250565b7f6f6e6c79206f776e657200000000000000000000000000000000000000000000600082015250565b610b648161094a565b8114610b6f57600080fd5b5056fea26469706673582212206fb8b160a4b80eda2dae21a97e67f795878bc3cd79d9bbe737068e0f219f5e0564736f6c63430008010033",
  "immutableReferences": {},
  "source": "pragma solidity >=0.4.25 <0.9.0;\n\ncontract TodoList {\n    address owner;\n    uint256 public taskCount = 0;\n\n    struct Task {\n        uint256 id;\n        string content;\n        bool completed;\n    }\n\n    mapping(uint256 => Task) public tasks;\n\n    constructor() {\n        owner = msg.sender;\n        createTask(\"Todo dApp\");\n    }\n\n    function createTask(string memory _content) public {\n        require(bytes(_content).length > 0, \"task must not empty\");\n        taskCount++;\n        tasks[taskCount] = Task(taskCount, _content, false);\n    }\n\n    function clearTask() public {\n        require(msg.sender == owner, \"only owner\");\n        for (uint256 i = 0; i < taskCount; i++) {\n            delete tasks[i];\n        }\n        taskCount = 0;\n    }\n\n    event TaskCompleted(uint256 id, bool completed);\n\n    function toggleCompleted(uint256 _id) public {\n        Task memory _task = tasks[_id];\n        require(_task.completed==false, \"task done\");\n        _task.completed = true;\n        tasks[_id] = _task;\n        emit TaskCompleted(_id, _task.completed);\n    }\n}\n",
  "sourcePath": "/Users/admin/Desktop/Project/dapp/eth-todo-list/contracts/TodoList.sol",
  "compiler": {
    "name": "solc",
    "version": "0.8.1+commit.df193b15.Emscripten.clang"
  },
  "schemaVersion": "3.4.3",
  "updatedAt": "2021-12-01T08:31:13.873Z",
  "networkType": "ethereum",
  "devdoc": {
    "kind": "dev",
    "methods": {},
    "version": 1
  },
  "userdoc": {
    "kind": "user",
    "methods": {},
    "version": 1
  }
}